:020000040000FA
:020000000528D1
:08000800452807309F008B170B
:100010000B168316011701308600F9308500831214
:1000200017202320172017202320232010282030DA
:10003000A200063085003A203A20003085002F20AB
:10004000A20B192808002030A200063085003A20B3
:10005000003085003A202F20A20B252808003A30D6
:10006000A0001030A100A00B3628A10B332838289F
:1000700000000800C630A0000130A100A00B4128FC
:0E008000A10B3E284328000008008B10090049
:02400E00183D5B
:00000001FF
