:020000040000FA
:1000000007309F00831600308600FF308500831282
:100010005430A3000430A4005830A5005C30A60082
:100020000630A7007930A8002308222024082220C7
:1000300025082220260822202708222028082220FE
:1000400033201428860037203720372037208601B8
:100050002F200800003401303828053038280A30B5
:100060003828143038283230382864303828FA30AC
:10007000A000C730A1000130A200A10B4028A20BB4
:080080003D28A00B39280034D3
:02400E00183D5B
:00000001FF
