:020000040000FA
:020000000528D1
:08000800552807309F008B17FB
:100010000B168316011301308600F9308500831218
:10002000A20113201128063085004A2085104A209D
:1000300005113F2008005030A300063085004A20FB
:1000400005114A2085103F20A30B1D2808002030F1
:10005000A400063085004A204A20003085003F2059
:10006000A40B292808002030A400063085004A206F
:10007000003085004A203F20A40B352808003A3084
:10008000A0001030A100A00B4628A10B432848284F
:1000900000000800C630A0000130A100A00B5128CC
:1000A000A10B4E285328000008001B2022185A28B4
:0C00B00027205B283320A20A8B100900D7
:02400E00183D5B
:00000001FF
