:020000040000FA
:020000000528D1
:08000800412807309F008B170F
:100010000B168316011701308600F9308500831214
:100020005030A2001B20A20B12285030A200232027
:10003000A20B1728102806308500362085103620A0
:1000400005112B20080006308500362005113620CA
:1000500085102B2008003A30A0001030A100A00B22
:100060003228A10B2F28342800000800C630A00039
:100070000130A100A00B3D28A10B3A283F28000029
:0600800008008B100900CE
:02400E00183D5B
:00000001FF
