:020000040000FA
:1000000007309F00831600308600FF308500831282
:1000100001301E2003301E2007301E200F301E200E
:100020001F301E203F301E207F301E20FF301E203C
:100030003420342034203420342008288600342012
:10004000342034203420860183122C200800003410
:1000500001303528053035280A3035281430352848
:100060003230352864303528FA30A000C730A1007E
:100070000130A200A10B3D28A20B3A28A00B362884
:0200800000344A
:02400E00183D5B
:00000001FF
