:020000040000FA
:1000000007309F00831600308600FF308500831282
:100010003F30A3000630A4005B30A5004F30A6009F
:100020006630A7006D30A8007D30A9000730AA0017
:1000300023082B2024082B2025082B2026082B20E2
:1000400027082B2028082B2029082B202A082B20C2
:1000500000302B20182886004120412041204120DB
:10006000860183123920080000340130422805300F
:1000700042280A3042281430422832304228643064
:100080004228FA30A000C730A1000130A200A10B25
:0C0090004A28A20B4728A00B432800348C
:02400E00183D5B
:00000001FF
