:020000040000FA
:1000000007309F00831600308600FF308500831282
:100010003F30A3000630A4005B30A5004F30A6009F
:100020006630A7006D30A8007D30A9000730AA0017
:1000300023082920240829202508292026082920EA
:100040002708292028082920290829202A082920CA
:10005000182886003F203F203F203F208601831242
:1000600037200800003401304028053040280A308D
:100070004028143040283230402864304028FA307C
:10008000A000C730A1000130A200A10B4828A20B9C
:080090004528A00B41280034B3
:02400E00183D5B
:00000001FF
