:020000040000FA
:1000000007309F00831600308600FF308500831282
:100010003F30A3000630A4005B30A5004F30A6009F
:100020006630A7006D30A8007D30A9000730AA0017
:10003000051918280030AB000830AC004D205820BE
:100040005320AC0B1F282B192D28AB182A282B184E
:10005000382835282B183E283B28AB1832282B1877
:10006000442841282B184A284728230886001828A6
:1000700024088600182825088600182826088600E7
:100080001828270886001828280886001828290814
:10009000860018282A08860018282E30A000A00BF9
:1000A0004F28522808001D30A000A00B552808003A
:0A00B000AB0D01300519AB07080085
:02400E00183D5B
:00000001FF
